{
  "contractName": "FakeSlam",
  "abi": [
    {
      "constant": false,
      "inputs": [
        {
          "name": "_articleID",
          "type": "uint256"
        },
        {
          "name": "_isFake",
          "type": "bool"
        }
      ],
      "name": "resolve",
      "outputs": [
        {
          "name": "",
          "type": "bool[]"
        }
      ],
      "payable": false,
      "stateMutability": "nonpayable",
      "type": "function"
    },
    {
      "constant": true,
      "inputs": [
        {
          "name": "_articleID",
          "type": "uint256"
        },
        {
          "name": "_isFake",
          "type": "bool"
        }
      ],
      "name": "getWonAmount",
      "outputs": [
        {
          "name": "amount",
          "type": "uint256"
        }
      ],
      "payable": false,
      "stateMutability": "view",
      "type": "function"
    },
    {
      "constant": false,
      "inputs": [
        {
          "name": "_articleID",
          "type": "uint256"
        },
        {
          "name": "_isFake",
          "type": "bool"
        },
        {
          "name": "_amount",
          "type": "uint256"
        }
      ],
      "name": "vote",
      "outputs": [
        {
          "name": "amount",
          "type": "uint256"
        }
      ],
      "payable": false,
      "stateMutability": "nonpayable",
      "type": "function"
    },
    {
      "constant": true,
      "inputs": [
        {
          "name": "",
          "type": "address"
        }
      ],
      "name": "votes",
      "outputs": [
        {
          "name": "adr",
          "type": "address"
        }
      ],
      "payable": false,
      "stateMutability": "view",
      "type": "function"
    },
    {
      "constant": true,
      "inputs": [
        {
          "name": "",
          "type": "uint256"
        }
      ],
      "name": "articles",
      "outputs": [
        {
          "name": "distributeAmount",
          "type": "uint256"
        },
        {
          "name": "fakeVoteCount",
          "type": "uint256"
        },
        {
          "name": "genuineVoteCount",
          "type": "uint256"
        },
        {
          "name": "fakePool",
          "type": "uint256"
        },
        {
          "name": "genuinePool",
          "type": "uint256"
        },
        {
          "name": "isActive",
          "type": "bool"
        },
        {
          "name": "isFake",
          "type": "bool"
        }
      ],
      "payable": false,
      "stateMutability": "view",
      "type": "function"
    },
    {
      "constant": true,
      "inputs": [],
      "name": "getAmount",
      "outputs": [
        {
          "name": "",
          "type": "uint256[]"
        }
      ],
      "payable": false,
      "stateMutability": "view",
      "type": "function"
    },
    {
      "constant": false,
      "inputs": [
        {
          "name": "_articleID",
          "type": "uint256"
        },
        {
          "name": "_isFake",
          "type": "bool"
        },
        {
          "name": "_amount",
          "type": "uint256"
        }
      ],
      "name": "vote",
      "outputs": [],
      "payable": false,
      "stateMutability": "nonpayable",
      "type": "function"
    },
    {
      "constant": true,
      "inputs": [
        {
          "name": "",
          "type": "address"
        }
      ],
      "name": "votes",
      "outputs": [
        {
          "name": "adr",
          "type": "address"
        }
      ],
      "payable": false,
      "stateMutability": "view",
      "type": "function"
    },
    {
      "constant": true,
      "inputs": [
        {
          "name": "",
          "type": "uint256"
        }
      ],
      "name": "articles",
      "outputs": [
        {
          "name": "distributeAmount",
          "type": "uint256"
        },
        {
          "name": "fakeVoteCount",
          "type": "uint256"
        },
        {
          "name": "genuineVoteCount",
          "type": "uint256"
        },
        {
          "name": "fakePool",
          "type": "uint256"
        },
        {
          "name": "genuinePool",
          "type": "uint256"
        },
        {
          "name": "isActive",
          "type": "bool"
        },
        {
          "name": "isFake",
          "type": "bool"
        }
      ],
      "payable": false,
      "stateMutability": "view",
      "type": "function"
    }
  ],
  "bytecode": "0x6060604052341561000f57600080fd5b610b438061001e6000396000f30060606040526004361061006d576000357c0100000000000000000000000000000000000000000000000000000000900463ffffffff16806352a34b051461007257806373b24a52146100a0578063d46a5d7e146100d7578063d8bff5a51461010e578063edcfafe614610187575b600080fd5b341561007d57600080fd5b61009e600480803590602001909190803515159060200190919050506101f0565b005b34156100ab57600080fd5b6100c1600480803590602001909190505061054e565b6040518082815260200191505060405180910390f35b34156100e257600080fd5b61010c60048080359060200190919080351515906020019091908035906020019091905050610660565b005b341561011957600080fd5b610145600480803573ffffffffffffffffffffffffffffffffffffffff169060200190919050506109c6565b604051808273ffffffffffffffffffffffffffffffffffffffff1673ffffffffffffffffffffffffffffffffffffffff16815260200191505060405180910390f35b341561019257600080fd5b6101a86004808035906020019091905050610a04565b60405180888152602001878152602001868152602001858152602001848152602001831515151581526020018215151515815260200197505050505050505060405180910390f35b6000806000806000806000600160008a815260200190815260200160002060070160006101000a81548160ff02191690831515021790555086600160008a815260200190815260200160002060070160016101000a81548160ff02191690831515021790555086156102b3576001600089815260200190815260200160002060030154600160008a81526020019081526020016000206006015481151561029357fe5b04600160008a815260200190815260200160002060020181905550610306565b6001600089815260200190815260200160002060040154600160008a8152602001908152602001600020600501548115156102ea57fe5b04600160008a8152602001908152602001600020600201819055505b60016000898152602001908152602001600020600001805490509450600093505b8484101561054457600160008981526020019081526020016000206000018481548110151561035257fe5b906000526020600020900160009054906101000a900473ffffffffffffffffffffffffffffffffffffffff1692506000808473ffffffffffffffffffffffffffffffffffffffff1673ffffffffffffffffffffffffffffffffffffffff168152602001908152602001600020600101805490509150600090505b8181101561044657876000808573ffffffffffffffffffffffffffffffffffffffff1673ffffffffffffffffffffffffffffffffffffffff1681526020019081526020016000206001018281548110151561042357fe5b9060005260206000209001541415610439578095505b80806001019150506103cc565b8615156000808573ffffffffffffffffffffffffffffffffffffffff1673ffffffffffffffffffffffffffffffffffffffff1681526020019081526020016000206002018781548110151561049757fe5b90600052602060002090602091828204019190069054906101000a900460ff1615151415610537576001600089815260200190815260200160002060010180548060010182816104e79190610a60565b9160005260206000209001600085909190916101000a81548173ffffffffffffffffffffffffffffffffffffffff021916908373ffffffffffffffffffffffffffffffffffffffff160217905550505b8380600101945050610327565b5050505050505050565b6000806000809250600015156001600086815260200190815260200160002060070160009054906101000a900460ff16151514156106595760016000858152602001908152602001600020600101805490509150600090505b81811015610658573373ffffffffffffffffffffffffffffffffffffffff1660016000868152602001908152602001600020600101828154811015156105e957fe5b906000526020600020900160009054906101000a900473ffffffffffffffffffffffffffffffffffffffff1673ffffffffffffffffffffffffffffffffffffffff16141561064b57600160008581526020019081526020016000206002015492505b80806001019150506105a7565b5b5050919050565b336000803373ffffffffffffffffffffffffffffffffffffffff1673ffffffffffffffffffffffffffffffffffffffff16815260200190815260200160002060000160006101000a81548173ffffffffffffffffffffffffffffffffffffffff021916908373ffffffffffffffffffffffffffffffffffffffff1602179055506000803373ffffffffffffffffffffffffffffffffffffffff1673ffffffffffffffffffffffffffffffffffffffff16815260200190815260200160002060010180548060010182816107339190610a8c565b9160005260206000209001600085909190915055506000803373ffffffffffffffffffffffffffffffffffffffff1673ffffffffffffffffffffffffffffffffffffffff168152602001908152602001600020600201805480600101828161079b9190610ab8565b916000526020600020906020918282040191900684909190916101000a81548160ff021916908315150217905550506000803373ffffffffffffffffffffffffffffffffffffffff1673ffffffffffffffffffffffffffffffffffffffff168152602001908152602001600020600301805480600101828161081d9190610a8c565b91600052602060002090016000839091909150555060016000848152602001908152602001600020600001805480600101828161085a9190610a60565b9160005260206000209001600033909190916101000a81548173ffffffffffffffffffffffffffffffffffffffff021916908373ffffffffffffffffffffffffffffffffffffffff1602179055505081156108fe578060016000858152602001908152602001600020600501600082825401925050819055506001600084815260200190815260200160002060030160008154809291906001019190505550610949565b80600160008581526020019081526020016000206006016000828254019250508190555060016000848152602001908152602001600020600401600081548092919060010191905055505b600180600085815260200190815260200160002060070160006101000a81548160ff021916908315150217905550600180600085815260200190815260200160002060070160016101000a81548160ff02191690831515021790555060006001600085815260200190815260200160002060020181905550505050565b60006020528060005260406000206000915090508060000160009054906101000a900473ffffffffffffffffffffffffffffffffffffffff16905081565b60016020528060005260406000206000915090508060020154908060030154908060040154908060050154908060060154908060070160009054906101000a900460ff16908060070160019054906101000a900460ff16905087565b815481835581811511610a8757818360005260206000209182019101610a869190610af2565b5b505050565b815481835581811511610ab357818360005260206000209182019101610ab29190610af2565b5b505050565b815481835581811511610aed57601f016020900481601f01602090048360005260206000209182019101610aec9190610af2565b5b505050565b610b1491905b80821115610b10576000816000905550600101610af8565b5090565b905600a165627a7a72305820f2aa054acf64a72bca3d92dda640a70517006232eeb5054851ab74da420b4eb30029",
  "source": "pragma solidity ^0.4.15;\n\n// FakeSlam! Contract v0.1.0;\ncontract FakeSlam {\n    /** --> STRUCTURES BEGIN HERE <-- */\n\n    // A Vote struct is associated with every user\n    struct Vote {\n        // Address of the voter\n        address adr;\n\n        // Articles he has voted on\n        uint[] articleID;\n\n        // His votes (1-1) with articleID\n        bool[] isFake;\n\n        // The amount he backed\n        uint[] amount;\n    }\n\n    // An Article struct to hold article information\n    struct Article {\n        // Address of voters who voted on the article\n        address[] voters;\n\n        // Store the address of voters who made correct prediction\n        address[] wonVoters;\n\n        // The amount to be distributed amongst won voters\n        uint distributeAmount;\n\n        // The fake and genuine vote count\n        uint fakeVoteCount;\n        uint genuineVoteCount;\n\n        // The pool amount\n        uint fakePool;\n        uint genuinePool;\n\n        // Articles result\n        bool isActive;\n        bool isFake;\n    }\n\n    /** MAPPING BEGINS HERE */\n\n    // Mapping Vote struct via user's address\n    // This way we map users and his votes\n    mapping(address => Vote) public votes;\n\n    // Mapping Article struct via articleID\n    mapping(uint => Article) public articles;\n\n\n    /** --> FUNCTIONS BEGIN HERE <-- */\n\n    /** Called when user votes */\n    function vote(uint _articleID, bool _isFake, uint _amount) public {\n\n        // Record the user's vote\n        votes[msg.sender].adr = msg.sender;\n        votes[msg.sender].articleID.push(_articleID);\n        votes[msg.sender].isFake.push(_isFake);\n        votes[msg.sender].amount.push(_amount);\n        articles[_articleID].voters.push(msg.sender);\n\n        // Add to pool amount\n        if (_isFake) {\n            articles[_articleID].fakePool += _amount;\n\n            // Increase fake vote count\n            articles[_articleID].fakeVoteCount++;\n\n        } else {\n            articles[_articleID].genuinePool += _amount;\n\n            // Increase genuine vote count\n            articles[_articleID].genuineVoteCount++;\n        }\n\n        // Default Init\n        articles[_articleID].isActive = true;\n        articles[_articleID].isFake = true;\n        articles[_articleID].distributeAmount = 0;\n    }\n\n    /** Set distribute amount and resolve the article */\n    function resolve (uint _articleID, bool _isFake) public {\n\n        // The article voting period has expired\n        articles[_articleID].isActive = false;\n\n        // Update the article with the result\n        articles[_articleID].isFake = _isFake;\n\n        if (_isFake) {\n            // When the result is fake, distribute the genuine pool amount amongst\n            // the voters who voted the article as fake\n            articles[_articleID].distributeAmount =\n            articles[_articleID].genuinePool / articles[_articleID].fakeVoteCount;\n        } else {\n            // When the result is genuine, distribute the fake pool amount amongst\n            // the voters who voted the article as genuine\n            articles[_articleID].distributeAmount =\n            articles[_articleID].fakePool / articles[_articleID].genuineVoteCount;\n        }\n\n        uint articleIndex;\n        uint numOfVoters = articles[_articleID].voters.length;\n\n        // Iterate over all the voters (voters[] in Article), and:\n        // 1. Store the address of voter in _voter\n        // 2. Iterate over his 'votes' to identify the required index\n        // 3. Match his prediction to the outcome\n        for (uint i = 0; i < numOfVoters; i++) {\n            address _voter = articles[_articleID].voters[i];\n\n            uint numOfArticlesVoted = votes[_voter].articleID.length;\n            for (uint j = 0; j < numOfArticlesVoted; j++) {\n                if (votes[_voter].articleID[j] == _articleID)\n                    articleIndex = j;\n            }\n            // If the voter's prediction matches the outcome, push his address\n            // in the wonVoters array\n            if (votes[_voter].isFake[articleIndex] == _isFake)\n                articles[_articleID].wonVoters.push(_voter);\n        }\n    }\n\n    /** Returns the Fake Pool amount for a given article */\n    // function getFakePoolAmount (uint _articleID) public constant returns (uint) {\n    //     return articles[_articleID].fakePool;\n    // }\n\n    /** Returns the Genuine Pool amount for a given article */\n    // function getGenuinePoolAmount (uint _articleID) public constant returns (uint) {\n    //     return articles[_articleID].genuinePool;\n    // }\n\n    // /** Returns the vote history of a user*/\n    // function getVote() public constant returns (bool[]) {\n    //     return votes[msg.sender].isFake;\n    // }\n\n    // /** Returns the backing amount history of a user*/\n    // function getAmount() public constant returns (uint[]) {\n    //     return votes[msg.sender].amount;\n    // }\n\n    // /** Returns the article voting history of a user*/\n    // function getArticle() public constant returns (uint[]) {\n    //     return votes[msg.sender].articleID;\n    // }\n\n    // /** Returns the won voters array*/\n    // function getWonVoters(uint _articleID) public constant returns (address[]) {\n    //     return articles[_articleID].wonVoters;\n    // }\n\n    /** Called by user, returns the amount won for a given article, 0 incase lost */\n    function getWonAmount(uint _articleID) public constant returns (uint amount) {\n        amount = 0;\n        if (articles[_articleID].isActive == false) {\n            uint numOfWonVoters = articles[_articleID].wonVoters.length;\n            for (uint i = 0; i < numOfWonVoters; i++) {\n                if (articles[_articleID].wonVoters[i] == msg.sender) {\n                    amount = articles[_articleID].distributeAmount;\n                }\n            }\n        }\n    }\n}\n",
  "sourcePath": "/home/abhi/Desktop/Projects/fakeSlam/truffle/contracts/FakeSlam.sol",
  "compiler": {
    "name": "solc",
    "version": "0.4.18+commit.9cf6e910.Emscripten.clang"
  },
  "schemaVersion": "1.0.1",
  "updatedAt": "2017-12-08T10:37:31.968Z"
}